{
  "_format": "hh-sol-artifact-1",
  "contractName": "Mintathon001",
  "sourceName": "contracts/Mintathon001.sol",
  "abi": [
    {
      "inputs": [],
      "stateMutability": "nonpayable",
      "type": "constructor"
    },
    {
      "anonymous": false,
      "inputs": [
        {
          "indexed": true,
          "internalType": "address",
          "name": "owner",
          "type": "address"
        },
        {
          "indexed": true,
          "internalType": "address",
          "name": "approved",
          "type": "address"
        },
        {
          "indexed": true,
          "internalType": "uint256",
          "name": "tokenId",
          "type": "uint256"
        }
      ],
      "name": "Approval",
      "type": "event"
    },
    {
      "anonymous": false,
      "inputs": [
        {
          "indexed": true,
          "internalType": "address",
          "name": "owner",
          "type": "address"
        },
        {
          "indexed": true,
          "internalType": "address",
          "name": "operator",
          "type": "address"
        },
        {
          "indexed": false,
          "internalType": "bool",
          "name": "approved",
          "type": "bool"
        }
      ],
      "name": "ApprovalForAll",
      "type": "event"
    },
    {
      "anonymous": false,
      "inputs": [
        {
          "indexed": true,
          "internalType": "address",
          "name": "previousOwner",
          "type": "address"
        },
        {
          "indexed": true,
          "internalType": "address",
          "name": "newOwner",
          "type": "address"
        }
      ],
      "name": "OwnershipTransferred",
      "type": "event"
    },
    {
      "anonymous": false,
      "inputs": [
        {
          "indexed": true,
          "internalType": "address",
          "name": "from",
          "type": "address"
        },
        {
          "indexed": true,
          "internalType": "address",
          "name": "to",
          "type": "address"
        },
        {
          "indexed": true,
          "internalType": "uint256",
          "name": "tokenId",
          "type": "uint256"
        }
      ],
      "name": "Transfer",
      "type": "event"
    },
    {
      "inputs": [
        {
          "internalType": "address",
          "name": "to",
          "type": "address"
        },
        {
          "internalType": "uint256",
          "name": "tokenId",
          "type": "uint256"
        }
      ],
      "name": "approve",
      "outputs": [],
      "stateMutability": "nonpayable",
      "type": "function"
    },
    {
      "inputs": [
        {
          "internalType": "address",
          "name": "owner",
          "type": "address"
        }
      ],
      "name": "balanceOf",
      "outputs": [
        {
          "internalType": "uint256",
          "name": "",
          "type": "uint256"
        }
      ],
      "stateMutability": "view",
      "type": "function"
    },
    {
      "inputs": [],
      "name": "canMint",
      "outputs": [
        {
          "internalType": "bool",
          "name": "",
          "type": "bool"
        }
      ],
      "stateMutability": "view",
      "type": "function"
    },
    {
      "inputs": [
        {
          "internalType": "uint256",
          "name": "_id",
          "type": "uint256"
        }
      ],
      "name": "generateURI",
      "outputs": [
        {
          "internalType": "string",
          "name": "",
          "type": "string"
        }
      ],
      "stateMutability": "view",
      "type": "function"
    },
    {
      "inputs": [
        {
          "internalType": "uint256",
          "name": "tokenId",
          "type": "uint256"
        }
      ],
      "name": "getApproved",
      "outputs": [
        {
          "internalType": "address",
          "name": "",
          "type": "address"
        }
      ],
      "stateMutability": "view",
      "type": "function"
    },
    {
      "inputs": [
        {
          "internalType": "address",
          "name": "owner",
          "type": "address"
        },
        {
          "internalType": "address",
          "name": "operator",
          "type": "address"
        }
      ],
      "name": "isApprovedForAll",
      "outputs": [
        {
          "internalType": "bool",
          "name": "",
          "type": "bool"
        }
      ],
      "stateMutability": "view",
      "type": "function"
    },
    {
      "inputs": [],
      "name": "mint",
      "outputs": [],
      "stateMutability": "nonpayable",
      "type": "function"
    },
    {
      "inputs": [],
      "name": "name",
      "outputs": [
        {
          "internalType": "string",
          "name": "",
          "type": "string"
        }
      ],
      "stateMutability": "view",
      "type": "function"
    },
    {
      "inputs": [],
      "name": "owner",
      "outputs": [
        {
          "internalType": "address",
          "name": "",
          "type": "address"
        }
      ],
      "stateMutability": "view",
      "type": "function"
    },
    {
      "inputs": [
        {
          "internalType": "uint256",
          "name": "tokenId",
          "type": "uint256"
        }
      ],
      "name": "ownerOf",
      "outputs": [
        {
          "internalType": "address",
          "name": "",
          "type": "address"
        }
      ],
      "stateMutability": "view",
      "type": "function"
    },
    {
      "inputs": [],
      "name": "renounceOwnership",
      "outputs": [],
      "stateMutability": "nonpayable",
      "type": "function"
    },
    {
      "inputs": [
        {
          "internalType": "address",
          "name": "from",
          "type": "address"
        },
        {
          "internalType": "address",
          "name": "to",
          "type": "address"
        },
        {
          "internalType": "uint256",
          "name": "tokenId",
          "type": "uint256"
        }
      ],
      "name": "safeTransferFrom",
      "outputs": [],
      "stateMutability": "nonpayable",
      "type": "function"
    },
    {
      "inputs": [
        {
          "internalType": "address",
          "name": "from",
          "type": "address"
        },
        {
          "internalType": "address",
          "name": "to",
          "type": "address"
        },
        {
          "internalType": "uint256",
          "name": "tokenId",
          "type": "uint256"
        },
        {
          "internalType": "bytes",
          "name": "data",
          "type": "bytes"
        }
      ],
      "name": "safeTransferFrom",
      "outputs": [],
      "stateMutability": "nonpayable",
      "type": "function"
    },
    {
      "inputs": [
        {
          "internalType": "address",
          "name": "operator",
          "type": "address"
        },
        {
          "internalType": "bool",
          "name": "approved",
          "type": "bool"
        }
      ],
      "name": "setApprovalForAll",
      "outputs": [],
      "stateMutability": "nonpayable",
      "type": "function"
    },
    {
      "inputs": [
        {
          "internalType": "bytes4",
          "name": "interfaceId",
          "type": "bytes4"
        }
      ],
      "name": "supportsInterface",
      "outputs": [
        {
          "internalType": "bool",
          "name": "",
          "type": "bool"
        }
      ],
      "stateMutability": "view",
      "type": "function"
    },
    {
      "inputs": [],
      "name": "symbol",
      "outputs": [
        {
          "internalType": "string",
          "name": "",
          "type": "string"
        }
      ],
      "stateMutability": "view",
      "type": "function"
    },
    {
      "inputs": [],
      "name": "toggleMintathon",
      "outputs": [],
      "stateMutability": "nonpayable",
      "type": "function"
    },
    {
      "inputs": [
        {
          "internalType": "uint256",
          "name": "tokenId",
          "type": "uint256"
        }
      ],
      "name": "tokenURI",
      "outputs": [
        {
          "internalType": "string",
          "name": "",
          "type": "string"
        }
      ],
      "stateMutability": "view",
      "type": "function"
    },
    {
      "inputs": [],
      "name": "totalSupply",
      "outputs": [
        {
          "internalType": "uint256",
          "name": "",
          "type": "uint256"
        }
      ],
      "stateMutability": "view",
      "type": "function"
    },
    {
      "inputs": [
        {
          "internalType": "address",
          "name": "from",
          "type": "address"
        },
        {
          "internalType": "address",
          "name": "to",
          "type": "address"
        },
        {
          "internalType": "uint256",
          "name": "tokenId",
          "type": "uint256"
        }
      ],
      "name": "transferFrom",
      "outputs": [],
      "stateMutability": "nonpayable",
      "type": "function"
    },
    {
      "inputs": [
        {
          "internalType": "address",
          "name": "newOwner",
          "type": "address"
        }
      ],
      "name": "transferOwnership",
      "outputs": [],
      "stateMutability": "nonpayable",
      "type": "function"
    },
    {
      "inputs": [
        {
          "internalType": "string",
          "name": "_newURI",
          "type": "string"
        }
      ],
      "name": "updateTokenURI",
      "outputs": [],
      "stateMutability": "nonpayable",
      "type": "function"
    }
  ],
  "bytecode": "0x608060405260405180608001604052806057815260200162003969605791396009908051906020019062000035929190620001f3565b506001600a60006101000a81548160ff0219169083151502179055503480156200005e57600080fd5b506040518060400160405280601f81526020017f53656b657220466163746f72792044414f204d696e746174686f6e20303031008152506040518060400160405280601181526020017f534644204d696e746174686f6e203030310000000000000000000000000000008152508160009080519060200190620000e3929190620001f3565b508060019080519060200190620000fc929190620001f3565b5050506200011f620001136200012560201b60201c565b6200012d60201b60201c565b62000308565b600033905090565b6000600760009054906101000a900473ffffffffffffffffffffffffffffffffffffffff16905081600760006101000a81548173ffffffffffffffffffffffffffffffffffffffff021916908373ffffffffffffffffffffffffffffffffffffffff1602179055508173ffffffffffffffffffffffffffffffffffffffff168173ffffffffffffffffffffffffffffffffffffffff167f8be0079c531659141344cd1fd0a4f28419497f9722a3daafe3b4186f6b6457e060405160405180910390a35050565b8280546200020190620002a3565b90600052602060002090601f01602090048101928262000225576000855562000271565b82601f106200024057805160ff191683800117855562000271565b8280016001018555821562000271579182015b828111156200027057825182559160200191906001019062000253565b5b50905062000280919062000284565b5090565b5b808211156200029f57600081600090555060010162000285565b5090565b60006002820490506001821680620002bc57607f821691505b60208210811415620002d357620002d2620002d9565b5b50919050565b7f4e487b7100000000000000000000000000000000000000000000000000000000600052602260045260246000fd5b61365180620003186000396000f3fe608060405234801561001057600080fd5b50600436106101425760003560e01c80638da5cb5b116100b8578063b88d4fde1161007c578063b88d4fde14610329578063beb9716d14610345578063c87b56dd14610363578063db790e0914610393578063e985e9c5146103c3578063f2fde38b146103f357610142565b80638da5cb5b146102ab57806395d89b41146102c957806398cd6153146102e7578063a22cb46514610303578063b25ea65d1461031f57610142565b806318160ddd1161010a57806318160ddd146101eb57806323b872dd1461020957806342842e0e146102255780636352211e1461024157806370a0823114610271578063715018a6146102a157610142565b806301ffc9a71461014757806306fdde0314610177578063081812fc14610195578063095ea7b3146101c55780631249c58b146101e1575b600080fd5b610161600480360381019061015c9190612246565b61040f565b60405161016e91906128f8565b60405180910390f35b61017f6104f1565b60405161018c9190612913565b60405180910390f35b6101af60048036038101906101aa91906122e9565b610583565b6040516101bc9190612891565b60405180910390f35b6101df60048036038101906101da9190612206565b6105c9565b005b6101e96106e1565b005b6101f3610755565b6040516102009190612b15565b60405180910390f35b610223600480360381019061021e91906120f0565b610766565b005b61023f600480360381019061023a91906120f0565b6107c6565b005b61025b600480360381019061025691906122e9565b6107e6565b6040516102689190612891565b60405180910390f35b61028b60048036038101906102869190612083565b61086d565b6040516102989190612b15565b60405180910390f35b6102a9610925565b005b6102b3610939565b6040516102c09190612891565b60405180910390f35b6102d1610963565b6040516102de9190612913565b60405180910390f35b61030160048036038101906102fc91906122a0565b6109f5565b005b61031d600480360381019061031891906121c6565b610a17565b005b610327610a2d565b005b610343600480360381019061033e9190612143565b610a61565b005b61034d610ac3565b60405161035a91906128f8565b60405180910390f35b61037d600480360381019061037891906122e9565b610ad6565b60405161038a9190612913565b60405180910390f35b6103ad60048036038101906103a891906122e9565b610b30565b6040516103ba9190612913565b60405180910390f35b6103dd60048036038101906103d891906120b0565b610baa565b6040516103ea91906128f8565b60405180910390f35b61040d60048036038101906104089190612083565b610c3e565b005b60007f80ac58cd000000000000000000000000000000000000000000000000000000007bffffffffffffffffffffffffffffffffffffffffffffffffffffffff1916827bffffffffffffffffffffffffffffffffffffffffffffffffffffffff191614806104da57507f5b5e139f000000000000000000000000000000000000000000000000000000007bffffffffffffffffffffffffffffffffffffffffffffffffffffffff1916827bffffffffffffffffffffffffffffffffffffffffffffffffffffffff1916145b806104ea57506104e982610cc2565b5b9050919050565b60606000805461050090612dda565b80601f016020809104026020016040519081016040528092919081815260200182805461052c90612dda565b80156105795780601f1061054e57610100808354040283529160200191610579565b820191906000526020600020905b81548152906001019060200180831161055c57829003601f168201915b5050505050905090565b600061058e82610d2c565b6004600083815260200190815260200160002060009054906101000a900473ffffffffffffffffffffffffffffffffffffffff169050919050565b60006105d4826107e6565b90508073ffffffffffffffffffffffffffffffffffffffff168373ffffffffffffffffffffffffffffffffffffffff161415610645576040517f08c379a000000000000000000000000000000000000000000000000000000000815260040161063c90612ab5565b60405180910390fd5b8073ffffffffffffffffffffffffffffffffffffffff16610664610d77565b73ffffffffffffffffffffffffffffffffffffffff16148061069357506106928161068d610d77565b610baa565b5b6106d2576040517f08c379a00000000000000000000000000000000000000000000000000000000081526004016106c990612ad5565b60405180910390fd5b6106dc8383610d7f565b505050565b600a60009054906101000a900460ff16610730576040517f08c379a000000000000000000000000000000000000000000000000000000000815260040161072790612a55565b60405180910390fd5b600061073c6008610e38565b90506107483382610e46565b6107526008610e64565b50565b60006107616008610e38565b905090565b610777610771610d77565b82610e7a565b6107b6576040517f08c379a00000000000000000000000000000000000000000000000000000000081526004016107ad90612935565b60405180910390fd5b6107c1838383610f0f565b505050565b6107e183838360405180602001604052806000815250610a61565b505050565b6000806107f283611209565b9050600073ffffffffffffffffffffffffffffffffffffffff168173ffffffffffffffffffffffffffffffffffffffff161415610864576040517f08c379a000000000000000000000000000000000000000000000000000000000815260040161085b90612a95565b60405180910390fd5b80915050919050565b60008073ffffffffffffffffffffffffffffffffffffffff168273ffffffffffffffffffffffffffffffffffffffff1614156108de576040517f08c379a00000000000000000000000000000000000000000000000000000000081526004016108d590612a15565b60405180910390fd5b600360008373ffffffffffffffffffffffffffffffffffffffff1673ffffffffffffffffffffffffffffffffffffffff168152602001908152602001600020549050919050565b61092d611246565b61093760006112c4565b565b6000600760009054906101000a900473ffffffffffffffffffffffffffffffffffffffff16905090565b60606001805461097290612dda565b80601f016020809104026020016040519081016040528092919081815260200182805461099e90612dda565b80156109eb5780601f106109c0576101008083540402835291602001916109eb565b820191906000526020600020905b8154815290600101906020018083116109ce57829003601f168201915b5050505050905090565b6109fd611246565b8060099080519060200190610a13929190611e97565b5050565b610a29610a22610d77565b838361138a565b5050565b610a35611246565b600a60009054906101000a900460ff1615600a60006101000a81548160ff021916908315150217905550565b610a72610a6c610d77565b83610e7a565b610ab1576040517f08c379a0000000000000000000000000000000000000000000000000000000008152600401610aa890612935565b60405180910390fd5b610abd848484846114f7565b50505050565b600a60009054906101000a900460ff1681565b6060610ae182611553565b610b20576040517f08c379a0000000000000000000000000000000000000000000000000000000008152600401610b1790612af5565b60405180910390fd5b610b2982610b30565b9050919050565b6060610b84610b4a600184610b459190612c0f565b611594565b610b5c610b576008610e38565b611594565b6009604051602001610b70939291906127d0565b60405160208183030381529060405261166c565b604051602001610b94919061286f565b6040516020818303038152906040529050919050565b6000600560008473ffffffffffffffffffffffffffffffffffffffff1673ffffffffffffffffffffffffffffffffffffffff16815260200190815260200160002060008373ffffffffffffffffffffffffffffffffffffffff1673ffffffffffffffffffffffffffffffffffffffff16815260200190815260200160002060009054906101000a900460ff16905092915050565b610c46611246565b600073ffffffffffffffffffffffffffffffffffffffff168173ffffffffffffffffffffffffffffffffffffffff161415610cb6576040517f08c379a0000000000000000000000000000000000000000000000000000000008152600401610cad90612975565b60405180910390fd5b610cbf816112c4565b50565b60007f01ffc9a7000000000000000000000000000000000000000000000000000000007bffffffffffffffffffffffffffffffffffffffffffffffffffffffff1916827bffffffffffffffffffffffffffffffffffffffffffffffffffffffff1916149050919050565b610d3581611553565b610d74576040517f08c379a0000000000000000000000000000000000000000000000000000000008152600401610d6b90612a95565b60405180910390fd5b50565b600033905090565b816004600083815260200190815260200160002060006101000a81548173ffffffffffffffffffffffffffffffffffffffff021916908373ffffffffffffffffffffffffffffffffffffffff160217905550808273ffffffffffffffffffffffffffffffffffffffff16610df2836107e6565b73ffffffffffffffffffffffffffffffffffffffff167f8c5be1e5ebec7d5bd14f71427d1e84f3dd0314c0f7b2291e5b200ac8c7c3b92560405160405180910390a45050565b600081600001549050919050565b610e608282604051806020016040528060008152506117e5565b5050565b6001816000016000828254019250508190555050565b600080610e86836107e6565b90508073ffffffffffffffffffffffffffffffffffffffff168473ffffffffffffffffffffffffffffffffffffffff161480610ec85750610ec78185610baa565b5b80610f0657508373ffffffffffffffffffffffffffffffffffffffff16610eee84610583565b73ffffffffffffffffffffffffffffffffffffffff16145b91505092915050565b8273ffffffffffffffffffffffffffffffffffffffff16610f2f826107e6565b73ffffffffffffffffffffffffffffffffffffffff1614610f85576040517f08c379a0000000000000000000000000000000000000000000000000000000008152600401610f7c90612995565b60405180910390fd5b600073ffffffffffffffffffffffffffffffffffffffff168273ffffffffffffffffffffffffffffffffffffffff161415610ff5576040517f08c379a0000000000000000000000000000000000000000000000000000000008152600401610fec906129d5565b60405180910390fd5b6110028383836001611840565b8273ffffffffffffffffffffffffffffffffffffffff16611022826107e6565b73ffffffffffffffffffffffffffffffffffffffff1614611078576040517f08c379a000000000000000000000000000000000000000000000000000000000815260040161106f90612995565b60405180910390fd5b6004600082815260200190815260200160002060006101000a81549073ffffffffffffffffffffffffffffffffffffffff02191690556001600360008573ffffffffffffffffffffffffffffffffffffffff1673ffffffffffffffffffffffffffffffffffffffff168152602001908152602001600020600082825403925050819055506001600360008473ffffffffffffffffffffffffffffffffffffffff1673ffffffffffffffffffffffffffffffffffffffff16815260200190815260200160002060008282540192505081905550816002600083815260200190815260200160002060006101000a81548173ffffffffffffffffffffffffffffffffffffffff021916908373ffffffffffffffffffffffffffffffffffffffff160217905550808273ffffffffffffffffffffffffffffffffffffffff168473ffffffffffffffffffffffffffffffffffffffff167fddf252ad1be2c89b69c2b068fc378daa952ba7f163c4a11628f55a4df523b3ef60405160405180910390a46112048383836001611966565b505050565b60006002600083815260200190815260200160002060009054906101000a900473ffffffffffffffffffffffffffffffffffffffff169050919050565b61124e610d77565b73ffffffffffffffffffffffffffffffffffffffff1661126c610939565b73ffffffffffffffffffffffffffffffffffffffff16146112c2576040517f08c379a00000000000000000000000000000000000000000000000000000000081526004016112b990612a75565b60405180910390fd5b565b6000600760009054906101000a900473ffffffffffffffffffffffffffffffffffffffff16905081600760006101000a81548173ffffffffffffffffffffffffffffffffffffffff021916908373ffffffffffffffffffffffffffffffffffffffff1602179055508173ffffffffffffffffffffffffffffffffffffffff168173ffffffffffffffffffffffffffffffffffffffff167f8be0079c531659141344cd1fd0a4f28419497f9722a3daafe3b4186f6b6457e060405160405180910390a35050565b8173ffffffffffffffffffffffffffffffffffffffff168373ffffffffffffffffffffffffffffffffffffffff1614156113f9576040517f08c379a00000000000000000000000000000000000000000000000000000000081526004016113f0906129f5565b60405180910390fd5b80600560008573ffffffffffffffffffffffffffffffffffffffff1673ffffffffffffffffffffffffffffffffffffffff16815260200190815260200160002060008473ffffffffffffffffffffffffffffffffffffffff1673ffffffffffffffffffffffffffffffffffffffff16815260200190815260200160002060006101000a81548160ff0219169083151502179055508173ffffffffffffffffffffffffffffffffffffffff168373ffffffffffffffffffffffffffffffffffffffff167f17307eab39ab6107e8899845ad3d59bd9653f200f220920489ca2b5937696c31836040516114ea91906128f8565b60405180910390a3505050565b611502848484610f0f565b61150e8484848461196c565b61154d576040517f08c379a000000000000000000000000000000000000000000000000000000000815260040161154490612955565b60405180910390fd5b50505050565b60008073ffffffffffffffffffffffffffffffffffffffff1661157583611209565b73ffffffffffffffffffffffffffffffffffffffff1614159050919050565b6060600060016115a384611b03565b01905060008167ffffffffffffffff8111156115c2576115c1612eca565b5b6040519080825280601f01601f1916602001820160405280156115f45781602001600182028036833780820191505090505b509050600082602001820190505b600115611661578080600190039150507f3031323334353637383961626364656600000000000000000000000000000000600a86061a8153600a858161164b5761164a612e6c565b5b049450600085141561165c57611661565b611602565b819350505050919050565b606060008251141561168f576040518060200160405280600081525090506117e0565b60006040518060600160405280604081526020016135dc60409139905060006003600285516116be9190612c0f565b6116c89190612c65565b60046116d49190612c96565b905060006020826116e59190612c0f565b67ffffffffffffffff8111156116fe576116fd612eca565b5b6040519080825280601f01601f1916602001820160405280156117305781602001600182028036833780820191505090505b509050818152600183018586518101602084015b8183101561179f576003830192508251603f8160121c168501518253600182019150603f81600c1c168501518253600182019150603f8160061c168501518253600182019150603f8116850151825360018201915050611744565b6003895106600181146117b957600281146117c9576117d4565b613d3d60f01b60028303526117d4565b603d60f81b60018303525b50505050508093505050505b919050565b6117ef8383611c56565b6117fc600084848461196c565b61183b576040517f08c379a000000000000000000000000000000000000000000000000000000000815260040161183290612955565b60405180910390fd5b505050565b600181111561196057600073ffffffffffffffffffffffffffffffffffffffff168473ffffffffffffffffffffffffffffffffffffffff16146118d45780600360008673ffffffffffffffffffffffffffffffffffffffff1673ffffffffffffffffffffffffffffffffffffffff16815260200190815260200160002060008282546118cc9190612cf0565b925050819055505b600073ffffffffffffffffffffffffffffffffffffffff168373ffffffffffffffffffffffffffffffffffffffff161461195f5780600360008573ffffffffffffffffffffffffffffffffffffffff1673ffffffffffffffffffffffffffffffffffffffff16815260200190815260200160002060008282546119579190612c0f565b925050819055505b5b50505050565b50505050565b600061198d8473ffffffffffffffffffffffffffffffffffffffff16611e74565b15611af6578373ffffffffffffffffffffffffffffffffffffffff1663150b7a026119b6610d77565b8786866040518563ffffffff1660e01b81526004016119d894939291906128ac565b602060405180830381600087803b1580156119f257600080fd5b505af1925050508015611a2357506040513d601f19601f82011682018060405250810190611a209190612273565b60015b611aa6573d8060008114611a53576040519150601f19603f3d011682016040523d82523d6000602084013e611a58565b606091505b50600081511415611a9e576040517f08c379a0000000000000000000000000000000000000000000000000000000008152600401611a9590612955565b60405180910390fd5b805181602001fd5b63150b7a0260e01b7bffffffffffffffffffffffffffffffffffffffffffffffffffffffff1916817bffffffffffffffffffffffffffffffffffffffffffffffffffffffff191614915050611afb565b600190505b949350505050565b600080600090507a184f03e93ff9f4daa797ed6e38ed64bf6a1f0100000000000000008310611b61577a184f03e93ff9f4daa797ed6e38ed64bf6a1f0100000000000000008381611b5757611b56612e6c565b5b0492506040810190505b6d04ee2d6d415b85acef81000000008310611b9e576d04ee2d6d415b85acef81000000008381611b9457611b93612e6c565b5b0492506020810190505b662386f26fc100008310611bcd57662386f26fc100008381611bc357611bc2612e6c565b5b0492506010810190505b6305f5e1008310611bf6576305f5e1008381611bec57611beb612e6c565b5b0492506008810190505b6127108310611c1b576127108381611c1157611c10612e6c565b5b0492506004810190505b60648310611c3e5760648381611c3457611c33612e6c565b5b0492506002810190505b600a8310611c4d576001810190505b80915050919050565b600073ffffffffffffffffffffffffffffffffffffffff168273ffffffffffffffffffffffffffffffffffffffff161415611cc6576040517f08c379a0000000000000000000000000000000000000000000000000000000008152600401611cbd90612a35565b60405180910390fd5b611ccf81611553565b15611d0f576040517f08c379a0000000000000000000000000000000000000000000000000000000008152600401611d06906129b5565b60405180910390fd5b611d1d600083836001611840565b611d2681611553565b15611d66576040517f08c379a0000000000000000000000000000000000000000000000000000000008152600401611d5d906129b5565b60405180910390fd5b6001600360008473ffffffffffffffffffffffffffffffffffffffff1673ffffffffffffffffffffffffffffffffffffffff16815260200190815260200160002060008282540192505081905550816002600083815260200190815260200160002060006101000a81548173ffffffffffffffffffffffffffffffffffffffff021916908373ffffffffffffffffffffffffffffffffffffffff160217905550808273ffffffffffffffffffffffffffffffffffffffff16600073ffffffffffffffffffffffffffffffffffffffff167fddf252ad1be2c89b69c2b068fc378daa952ba7f163c4a11628f55a4df523b3ef60405160405180910390a4611e70600083836001611966565b5050565b6000808273ffffffffffffffffffffffffffffffffffffffff163b119050919050565b828054611ea390612dda565b90600052602060002090601f016020900481019282611ec55760008555611f0c565b82601f10611ede57805160ff1916838001178555611f0c565b82800160010185558215611f0c579182015b82811115611f0b578251825591602001919060010190611ef0565b5b509050611f199190611f1d565b5090565b5b80821115611f36576000816000905550600101611f1e565b5090565b6000611f4d611f4884612b55565b612b30565b905082815260208101848484011115611f6957611f68612efe565b5b611f74848285612d98565b509392505050565b6000611f8f611f8a84612b86565b612b30565b905082815260208101848484011115611fab57611faa612efe565b5b611fb6848285612d98565b509392505050565b600081359050611fcd8161357f565b92915050565b600081359050611fe281613596565b92915050565b600081359050611ff7816135ad565b92915050565b60008151905061200c816135ad565b92915050565b600082601f83011261202757612026612ef9565b5b8135612037848260208601611f3a565b91505092915050565b600082601f83011261205557612054612ef9565b5b8135612065848260208601611f7c565b91505092915050565b60008135905061207d816135c4565b92915050565b60006020828403121561209957612098612f08565b5b60006120a784828501611fbe565b91505092915050565b600080604083850312156120c7576120c6612f08565b5b60006120d585828601611fbe565b92505060206120e685828601611fbe565b9150509250929050565b60008060006060848603121561210957612108612f08565b5b600061211786828701611fbe565b935050602061212886828701611fbe565b92505060406121398682870161206e565b9150509250925092565b6000806000806080858703121561215d5761215c612f08565b5b600061216b87828801611fbe565b945050602061217c87828801611fbe565b935050604061218d8782880161206e565b925050606085013567ffffffffffffffff8111156121ae576121ad612f03565b5b6121ba87828801612012565b91505092959194509250565b600080604083850312156121dd576121dc612f08565b5b60006121eb85828601611fbe565b92505060206121fc85828601611fd3565b9150509250929050565b6000806040838503121561221d5761221c612f08565b5b600061222b85828601611fbe565b925050602061223c8582860161206e565b9150509250929050565b60006020828403121561225c5761225b612f08565b5b600061226a84828501611fe8565b91505092915050565b60006020828403121561228957612288612f08565b5b600061229784828501611ffd565b91505092915050565b6000602082840312156122b6576122b5612f08565b5b600082013567ffffffffffffffff8111156122d4576122d3612f03565b5b6122e084828501612040565b91505092915050565b6000602082840312156122ff576122fe612f08565b5b600061230d8482850161206e565b91505092915050565b61231f81612d24565b82525050565b61232e81612d36565b82525050565b600061233f82612bcc565b6123498185612be2565b9350612359818560208601612da7565b61236281612f0d565b840191505092915050565b600061237882612bd7565b6123828185612bf3565b9350612392818560208601612da7565b61239b81612f0d565b840191505092915050565b60006123b182612bd7565b6123bb8185612c04565b93506123cb818560208601612da7565b80840191505092915050565b600081546123e481612dda565b6123ee8186612c04565b94506001821660008114612409576001811461241a5761244d565b60ff1983168652818601935061244d565b61242385612bb7565b60005b8381101561244557815481890152600182019150602081019050612426565b838801955050505b50505092915050565b6000612463603183612c04565b915061246e82612f1e565b603182019050919050565b6000612486602d83612bf3565b915061249182612f6d565b604082019050919050565b60006124a9602a83612c04565b91506124b482612fbc565b602a82019050919050565b60006124cc603283612bf3565b91506124d78261300b565b604082019050919050565b60006124ef602683612bf3565b91506124fa8261305a565b604082019050919050565b600061251260b783612c04565b915061251d826130a9565b60b782019050919050565b6000612535602583612bf3565b915061254082613190565b604082019050919050565b6000612558601c83612bf3565b9150612563826131df565b602082019050919050565b600061257b602483612bf3565b915061258682613208565b604082019050919050565b600061259e601983612bf3565b91506125a982613257565b602082019050919050565b60006125c1602983612bf3565b91506125cc82613280565b604082019050919050565b60006125e4600983612c04565b91506125ef826132cf565b600982019050919050565b6000612607600283612c04565b9150612612826132f8565b600282019050919050565b600061262a602083612bf3565b915061263582613321565b602082019050919050565b600061264d600283612c04565b91506126588261334a565b600282019050919050565b6000612670602083612bf3565b915061267b82613373565b602082019050919050565b6000612693602083612bf3565b915061269e8261339c565b602082019050919050565b60006126b6600183612c04565b91506126c1826133c5565b600182019050919050565b60006126d9601883612bf3565b91506126e4826133ee565b602082019050919050565b60006126fc602183612bf3565b915061270782613417565b604082019050919050565b600061271f601d83612c04565b915061272a82613466565b601d82019050919050565b6000612742603d83612bf3565b915061274d8261348f565b604082019050919050565b6000612765602e83612bf3565b9150612770826134de565b604082019050919050565b6000612788600e83612c04565b91506127938261352d565b600e82019050919050565b60006127ab600183612c04565b91506127b682613556565b600182019050919050565b6127ca81612d8e565b82525050565b60006127db8261249c565b91506127e682612505565b91506127f18261277b565b91506127fc826126a9565b915061280782612456565b915061281382866123a6565b915061281e8261279e565b915061282a82856123a6565b9150612835826125fa565b915061284082612640565b915061284b826125d7565b915061285782846123d7565b9150612862826125fa565b9150819050949350505050565b600061287a82612712565b915061288682846123a6565b915081905092915050565b60006020820190506128a66000830184612316565b92915050565b60006080820190506128c16000830187612316565b6128ce6020830186612316565b6128db60408301856127c1565b81810360608301526128ed8184612334565b905095945050505050565b600060208201905061290d6000830184612325565b92915050565b6000602082019050818103600083015261292d818461236d565b905092915050565b6000602082019050818103600083015261294e81612479565b9050919050565b6000602082019050818103600083015261296e816124bf565b9050919050565b6000602082019050818103600083015261298e816124e2565b9050919050565b600060208201905081810360008301526129ae81612528565b9050919050565b600060208201905081810360008301526129ce8161254b565b9050919050565b600060208201905081810360008301526129ee8161256e565b9050919050565b60006020820190508181036000830152612a0e81612591565b9050919050565b60006020820190508181036000830152612a2e816125b4565b9050919050565b60006020820190508181036000830152612a4e8161261d565b9050919050565b60006020820190508181036000830152612a6e81612663565b9050919050565b60006020820190508181036000830152612a8e81612686565b9050919050565b60006020820190508181036000830152612aae816126cc565b9050919050565b60006020820190508181036000830152612ace816126ef565b9050919050565b60006020820190508181036000830152612aee81612735565b9050919050565b60006020820190508181036000830152612b0e81612758565b9050919050565b6000602082019050612b2a60008301846127c1565b92915050565b6000612b3a612b4b565b9050612b468282612e0c565b919050565b6000604051905090565b600067ffffffffffffffff821115612b7057612b6f612eca565b5b612b7982612f0d565b9050602081019050919050565b600067ffffffffffffffff821115612ba157612ba0612eca565b5b612baa82612f0d565b9050602081019050919050565b60008190508160005260206000209050919050565b600081519050919050565b600081519050919050565b600082825260208201905092915050565b600082825260208201905092915050565b600081905092915050565b6000612c1a82612d8e565b9150612c2583612d8e565b9250827fffffffffffffffffffffffffffffffffffffffffffffffffffffffffffffffff03821115612c5a57612c59612e3d565b5b828201905092915050565b6000612c7082612d8e565b9150612c7b83612d8e565b925082612c8b57612c8a612e6c565b5b828204905092915050565b6000612ca182612d8e565b9150612cac83612d8e565b9250817fffffffffffffffffffffffffffffffffffffffffffffffffffffffffffffffff0483118215151615612ce557612ce4612e3d565b5b828202905092915050565b6000612cfb82612d8e565b9150612d0683612d8e565b925082821015612d1957612d18612e3d565b5b828203905092915050565b6000612d2f82612d6e565b9050919050565b60008115159050919050565b60007fffffffff0000000000000000000000000000000000000000000000000000000082169050919050565b600073ffffffffffffffffffffffffffffffffffffffff82169050919050565b6000819050919050565b82818337600083830152505050565b60005b83811015612dc5578082015181840152602081019050612daa565b83811115612dd4576000848401525b50505050565b60006002820490506001821680612df257607f821691505b60208210811415612e0657612e05612e9b565b5b50919050565b612e1582612f0d565b810181811067ffffffffffffffff82111715612e3457612e33612eca565b5b80604052505050565b7f4e487b7100000000000000000000000000000000000000000000000000000000600052601160045260246000fd5b7f4e487b7100000000000000000000000000000000000000000000000000000000600052601260045260246000fd5b7f4e487b7100000000000000000000000000000000000000000000000000000000600052602260045260246000fd5b7f4e487b7100000000000000000000000000000000000000000000000000000000600052604160045260246000fd5b600080fd5b600080fd5b600080fd5b600080fd5b6000601f19601f8301169050919050565b7f7b2274726169745f74797065223a224d696e746174686f6e203030312053757060008201527f706f72746572222c2276616c7565223a22000000000000000000000000000000602082015250565b7f4552433732313a2063616c6c6572206973206e6f7420746f6b656e206f776e6560008201527f72206f7220617070726f76656400000000000000000000000000000000000000602082015250565b7f7b226e616d65223a2253656b657220466163746f72792044414f204d696e746160008201527f74686f6e20303031222c00000000000000000000000000000000000000000000602082015250565b7f4552433732313a207472616e7366657220746f206e6f6e20455243373231526560008201527f63656976657220696d706c656d656e7465720000000000000000000000000000602082015250565b7f4f776e61626c653a206e6577206f776e657220697320746865207a65726f206160008201527f6464726573730000000000000000000000000000000000000000000000000000602082015250565b7f226465736372697074696f6e223a22436f6d6d656d6f7261746573207468652060008201527f66697273742053656b657220466163746f72792044414f206c6976652073747260208201527f65616d206f6e206b6f6f702e78797a2e2054686973206d696e742068656c706560408201527f6420636f6e74696e7565207468652073747265616d20616e64206d616b65206860608201527f6973746f72792061732074686520666972737420657665722073747265616d6960808201527f6e67206d696e746174686f6e20696e20776562332e222c00000000000000000060a082015250565b7f4552433732313a207472616e736665722066726f6d20696e636f72726563742060008201527f6f776e6572000000000000000000000000000000000000000000000000000000602082015250565b7f4552433732313a20746f6b656e20616c7265616479206d696e74656400000000600082015250565b7f4552433732313a207472616e7366657220746f20746865207a65726f2061646460008201527f7265737300000000000000000000000000000000000000000000000000000000602082015250565b7f4552433732313a20617070726f766520746f2063616c6c657200000000000000600082015250565b7f4552433732313a2061646472657373207a65726f206973206e6f74206120766160008201527f6c6964206f776e65720000000000000000000000000000000000000000000000602082015250565b7f22696d616765223a220000000000000000000000000000000000000000000000600082015250565b7f227d000000000000000000000000000000000000000000000000000000000000600082015250565b7f4552433732313a206d696e7420746f20746865207a65726f2061646472657373600082015250565b7f5d2c000000000000000000000000000000000000000000000000000000000000600082015250565b7f4d696e746174686f6e203030313a204d696e746174686f6e206973206f766572600082015250565b7f4f776e61626c653a2063616c6c6572206973206e6f7420746865206f776e6572600082015250565b7f5b00000000000000000000000000000000000000000000000000000000000000600082015250565b7f4552433732313a20696e76616c696420746f6b656e2049440000000000000000600082015250565b7f4552433732313a20617070726f76616c20746f2063757272656e74206f776e6560008201527f7200000000000000000000000000000000000000000000000000000000000000602082015250565b7f646174613a6170706c69636174696f6e2f6a736f6e3b6261736536342c000000600082015250565b7f4552433732313a20617070726f76652063616c6c6572206973206e6f7420746f60008201527f6b656e206f776e6572206f7220617070726f76656420666f7220616c6c000000602082015250565b7f4d696e746174686f6e203030313a2055524920717565727920666f72206e6f6e60008201527f6578697374656e7420746f6b656e000000000000000000000000000000000000602082015250565b7f2261747472696275746573223a20000000000000000000000000000000000000600082015250565b7f2f00000000000000000000000000000000000000000000000000000000000000600082015250565b61358881612d24565b811461359357600080fd5b50565b61359f81612d36565b81146135aa57600080fd5b50565b6135b681612d42565b81146135c157600080fd5b50565b6135cd81612d8e565b81146135d857600080fd5b5056fe4142434445464748494a4b4c4d4e4f505152535455565758595a6162636465666768696a6b6c6d6e6f707172737475767778797a303132333435363738392b2fa2646970667358221220a85f922fc634a5e179c858100ee1313157c3664ec7af4ed0f1a1bb761242ff0664736f6c6343000806003368747470733a2f2f73656b6572666163746f72792e6d7970696e6174612e636c6f75642f697066732f516d65645671677a6959684162594553376e326b6d52474a4b39314a5a6b32515862324359596b736f3454316b62",
  "linkReferences": {},
  "deployedLinkReferences": {}
}